{
  "address": "0xF93a970f2210AEfc4EF6cAB010A4F2e20773B00e",
  "abi": [
    {
      "inputs": [],
      "stateMutability": "nonpayable",
      "type": "constructor"
    },
    {
      "anonymous": false,
      "inputs": [
        {
          "indexed": true,
          "internalType": "address",
          "name": "owner",
          "type": "address"
        },
        {
          "indexed": true,
          "internalType": "address",
          "name": "spender",
          "type": "address"
        },
        {
          "indexed": false,
          "internalType": "uint256",
          "name": "value",
          "type": "uint256"
        }
      ],
      "name": "Approval",
      "type": "event"
    },
    {
      "anonymous": false,
      "inputs": [
        {
          "indexed": true,
          "internalType": "address",
          "name": "previousOwner",
          "type": "address"
        },
        {
          "indexed": true,
          "internalType": "address",
          "name": "newOwner",
          "type": "address"
        }
      ],
      "name": "OwnershipTransferred",
      "type": "event"
    },
    {
      "anonymous": false,
      "inputs": [
        {
          "indexed": true,
          "internalType": "address",
          "name": "from",
          "type": "address"
        },
        {
          "indexed": true,
          "internalType": "address",
          "name": "to",
          "type": "address"
        },
        {
          "indexed": false,
          "internalType": "uint256",
          "name": "value",
          "type": "uint256"
        }
      ],
      "name": "Transfer",
      "type": "event"
    },
    {
      "inputs": [
        {
          "internalType": "address",
          "name": "toPair",
          "type": "address"
        }
      ],
      "name": "addPair",
      "outputs": [],
      "stateMutability": "nonpayable",
      "type": "function"
    },
    {
      "inputs": [
        {
          "internalType": "address",
          "name": "owner",
          "type": "address"
        },
        {
          "internalType": "address",
          "name": "spender",
          "type": "address"
        }
      ],
      "name": "allowance",
      "outputs": [
        {
          "internalType": "uint256",
          "name": "",
          "type": "uint256"
        }
      ],
      "stateMutability": "view",
      "type": "function"
    },
    {
      "inputs": [
        {
          "internalType": "address",
          "name": "spender",
          "type": "address"
        },
        {
          "internalType": "uint256",
          "name": "amount",
          "type": "uint256"
        }
      ],
      "name": "approve",
      "outputs": [
        {
          "internalType": "bool",
          "name": "",
          "type": "bool"
        }
      ],
      "stateMutability": "nonpayable",
      "type": "function"
    },
    {
      "inputs": [
        {
          "internalType": "address",
          "name": "account",
          "type": "address"
        }
      ],
      "name": "balanceOf",
      "outputs": [
        {
          "internalType": "uint256",
          "name": "",
          "type": "uint256"
        }
      ],
      "stateMutability": "view",
      "type": "function"
    },
    {
      "inputs": [
        {
          "internalType": "uint256",
          "name": "amount",
          "type": "uint256"
        }
      ],
      "name": "burn",
      "outputs": [],
      "stateMutability": "nonpayable",
      "type": "function"
    },
    {
      "inputs": [],
      "name": "decimals",
      "outputs": [
        {
          "internalType": "uint8",
          "name": "",
          "type": "uint8"
        }
      ],
      "stateMutability": "view",
      "type": "function"
    },
    {
      "inputs": [
        {
          "internalType": "address",
          "name": "spender",
          "type": "address"
        },
        {
          "internalType": "uint256",
          "name": "subtractedValue",
          "type": "uint256"
        }
      ],
      "name": "decreaseAllowance",
      "outputs": [
        {
          "internalType": "bool",
          "name": "",
          "type": "bool"
        }
      ],
      "stateMutability": "nonpayable",
      "type": "function"
    },
    {
      "inputs": [
        {
          "internalType": "address",
          "name": "spender",
          "type": "address"
        },
        {
          "internalType": "uint256",
          "name": "addedValue",
          "type": "uint256"
        }
      ],
      "name": "increaseAllowance",
      "outputs": [
        {
          "internalType": "bool",
          "name": "",
          "type": "bool"
        }
      ],
      "stateMutability": "nonpayable",
      "type": "function"
    },
    {
      "inputs": [],
      "name": "name",
      "outputs": [
        {
          "internalType": "string",
          "name": "",
          "type": "string"
        }
      ],
      "stateMutability": "view",
      "type": "function"
    },
    {
      "inputs": [],
      "name": "owner",
      "outputs": [
        {
          "internalType": "address",
          "name": "",
          "type": "address"
        }
      ],
      "stateMutability": "view",
      "type": "function"
    },
    {
      "inputs": [],
      "name": "renounceOwnership",
      "outputs": [],
      "stateMutability": "nonpayable",
      "type": "function"
    },
    {
      "inputs": [],
      "name": "symbol",
      "outputs": [
        {
          "internalType": "string",
          "name": "",
          "type": "string"
        }
      ],
      "stateMutability": "view",
      "type": "function"
    },
    {
      "inputs": [],
      "name": "totalSupply",
      "outputs": [
        {
          "internalType": "uint256",
          "name": "",
          "type": "uint256"
        }
      ],
      "stateMutability": "view",
      "type": "function"
    },
    {
      "inputs": [
        {
          "internalType": "address",
          "name": "to",
          "type": "address"
        },
        {
          "internalType": "uint256",
          "name": "amount",
          "type": "uint256"
        }
      ],
      "name": "transfer",
      "outputs": [
        {
          "internalType": "bool",
          "name": "",
          "type": "bool"
        }
      ],
      "stateMutability": "nonpayable",
      "type": "function"
    },
    {
      "inputs": [
        {
          "internalType": "address",
          "name": "from",
          "type": "address"
        },
        {
          "internalType": "address",
          "name": "to",
          "type": "address"
        },
        {
          "internalType": "uint256",
          "name": "amount",
          "type": "uint256"
        }
      ],
      "name": "transferFrom",
      "outputs": [
        {
          "internalType": "bool",
          "name": "",
          "type": "bool"
        }
      ],
      "stateMutability": "nonpayable",
      "type": "function"
    },
    {
      "inputs": [
        {
          "internalType": "address",
          "name": "newOwner",
          "type": "address"
        }
      ],
      "name": "transferOwnership",
      "outputs": [],
      "stateMutability": "nonpayable",
      "type": "function"
    }
  ],
  "transactionHash": "0xb339c7ae542d082109af00b1ae56155a6523708aad45990cfae80e5e7f448e04",
  "args": [],
  "numDeployments": 1,
  "solcInputHash": "4fbca3ca8b5aa88463406d0841de0d1d",
  "bytecode": "0x60806040523480156200001157600080fd5b506040518060400160405280600981526020017f53616e696e20496e7500000000000000000000000000000000000000000000008152506040518060400160405280600481526020017f53414e49000000000000000000000000000000000000000000000000000000008152508160039080519060200190620000969291906200040d565b508060049080519060200190620000af9291906200040d565b505050620000d2620000c6620001b360201b60201c565b620001bb60201b60201c565b6001600960006101000a81548160ff0219169083151502179055506019600881905550620001056200028160201b60201c565b600a620001139190620005fd565b6404a817c8006200012591906200073a565b600b819055506200013b6200028160201b60201c565b600a620001499190620005fd565b6404a817c8006200015b91906200073a565b600c819055506362532930600a81905550620001ad33620001816200028160201b60201c565b600a6200018f9190620005fd565b64e8d4a51000620001a191906200073a565b6200028a60201b60201c565b6200087c565b600033905090565b6000600560009054906101000a900473ffffffffffffffffffffffffffffffffffffffff16905081600560006101000a81548173ffffffffffffffffffffffffffffffffffffffff021916908373ffffffffffffffffffffffffffffffffffffffff1602179055508173ffffffffffffffffffffffffffffffffffffffff168173ffffffffffffffffffffffffffffffffffffffff167f8be0079c531659141344cd1fd0a4f28419497f9722a3daafe3b4186f6b6457e060405160405180910390a35050565b60006012905090565b600073ffffffffffffffffffffffffffffffffffffffff168273ffffffffffffffffffffffffffffffffffffffff161415620002fd576040517f08c379a0000000000000000000000000000000000000000000000000000000008152600401620002f490620004f5565b60405180910390fd5b62000311600083836200040360201b60201c565b806002600082825462000325919062000545565b92505081905550806000808473ffffffffffffffffffffffffffffffffffffffff1673ffffffffffffffffffffffffffffffffffffffff16815260200190815260200160002060008282546200037c919062000545565b925050819055508173ffffffffffffffffffffffffffffffffffffffff16600073ffffffffffffffffffffffffffffffffffffffff167fddf252ad1be2c89b69c2b068fc378daa952ba7f163c4a11628f55a4df523b3ef83604051620003e3919062000517565b60405180910390a3620003ff600083836200040860201b60201c565b5050565b505050565b505050565b8280546200041b90620007b2565b90600052602060002090601f0160209004810192826200043f57600085556200048b565b82601f106200045a57805160ff19168380011785556200048b565b828001600101855582156200048b579182015b828111156200048a5782518255916020019190600101906200046d565b5b5090506200049a91906200049e565b5090565b5b80821115620004b95760008160009055506001016200049f565b5090565b6000620004cc601f8362000534565b9150620004d98262000853565b602082019050919050565b620004ef816200079b565b82525050565b600060208201905081810360008301526200051081620004bd565b9050919050565b60006020820190506200052e6000830184620004e4565b92915050565b600082825260208201905092915050565b600062000552826200079b565b91506200055f836200079b565b9250827fffffffffffffffffffffffffffffffffffffffffffffffffffffffffffffffff03821115620005975762000596620007e8565b5b828201905092915050565b6000808291508390505b6001851115620005f457808604811115620005cc57620005cb620007e8565b5b6001851615620005dc5780820291505b8081029050620005ec8562000846565b9450620005ac565b94509492505050565b60006200060a826200079b565b91506200061783620007a5565b9250620006467fffffffffffffffffffffffffffffffffffffffffffffffffffffffffffffffff84846200064e565b905092915050565b60008262000660576001905062000733565b8162000670576000905062000733565b81600181146200068957600281146200069457620006ca565b600191505062000733565b60ff841115620006a957620006a8620007e8565b5b8360020a915084821115620006c357620006c2620007e8565b5b5062000733565b5060208310610133831016604e8410600b8410161715620007045782820a905083811115620006fe57620006fd620007e8565b5b62000733565b620007138484846001620005a2565b925090508184048111156200072d576200072c620007e8565b5b81810290505b9392505050565b600062000747826200079b565b915062000754836200079b565b9250817fffffffffffffffffffffffffffffffffffffffffffffffffffffffffffffffff048311821515161562000790576200078f620007e8565b5b828202905092915050565b6000819050919050565b600060ff82169050919050565b60006002820490506001821680620007cb57607f821691505b60208210811415620007e257620007e162000817565b5b50919050565b7f4e487b7100000000000000000000000000000000000000000000000000000000600052601160045260246000fd5b7f4e487b7100000000000000000000000000000000000000000000000000000000600052602260045260246000fd5b60008160011c9050919050565b7f45524332303a206d696e7420746f20746865207a65726f206164647265737300600082015250565b6125ad806200088c6000396000f3fe608060405234801561001057600080fd5b50600436106101005760003560e01c8063715018a611610097578063a9059cbb11610066578063a9059cbb146102b1578063c2b7bbb6146102e1578063dd62ed3e146102fd578063f2fde38b1461032d57610100565b8063715018a61461023b5780638da5cb5b1461024557806395d89b4114610263578063a457c2d71461028157610100565b8063313ce567116100d3578063313ce567146101a157806339509351146101bf57806342966c68146101ef57806370a082311461020b57610100565b806306fdde0314610105578063095ea7b31461012357806318160ddd1461015357806323b872dd14610171575b600080fd5b61010d610349565b60405161011a9190611b4a565b60405180910390f35b61013d60048036038101906101389190611850565b6103db565b60405161014a9190611b2f565b60405180910390f35b61015b6103fe565b6040516101689190611d2c565b60405180910390f35b61018b60048036038101906101869190611801565b610408565b6040516101989190611b2f565b60405180910390f35b6101a9610437565b6040516101b69190611d47565b60405180910390f35b6101d960048036038101906101d49190611850565b610440565b6040516101e69190611b2f565b60405180910390f35b6102096004803603810190610204919061188c565b6104ea565b005b6102256004803603810190610220919061179c565b610515565b6040516102329190611d2c565b60405180910390f35b61024361055d565b005b61024d6105e5565b60405161025a9190611b14565b60405180910390f35b61026b61060f565b6040516102789190611b4a565b60405180910390f35b61029b60048036038101906102969190611850565b6106a1565b6040516102a89190611b2f565b60405180910390f35b6102cb60048036038101906102c69190611850565b61078b565b6040516102d89190611b2f565b60405180910390f35b6102fb60048036038101906102f6919061179c565b6107ae565b005b610317600480360381019061031291906117c5565b610912565b6040516103249190611d2c565b60405180910390f35b6103476004803603810190610342919061179c565b610999565b005b6060600380546103589061208c565b80601f01602080910402602001604051908101604052809291908181526020018280546103849061208c565b80156103d15780601f106103a6576101008083540402835291602001916103d1565b820191906000526020600020905b8154815290600101906020018083116103b457829003601f168201915b5050505050905090565b6000806103e6610a91565b90506103f3818585610a99565b600191505092915050565b6000600254905090565b600080610413610a91565b9050610420858285610c64565b61042b858585610cf0565b60019150509392505050565b60006012905090565b60008061044b610a91565b90506104df818585600160008673ffffffffffffffffffffffffffffffffffffffff1673ffffffffffffffffffffffffffffffffffffffff16815260200190815260200160002060008973ffffffffffffffffffffffffffffffffffffffff1673ffffffffffffffffffffffffffffffffffffffff168152602001908152602001600020546104da9190611d7e565b610a99565b600191505092915050565b610512336104f6610437565b600a6105029190611e58565b8361050d9190611f76565b6111f2565b50565b60008060008373ffffffffffffffffffffffffffffffffffffffff1673ffffffffffffffffffffffffffffffffffffffff168152602001908152602001600020549050919050565b610565610a91565b73ffffffffffffffffffffffffffffffffffffffff166105836105e5565b73ffffffffffffffffffffffffffffffffffffffff16146105d9576040517f08c379a00000000000000000000000000000000000000000000000000000000081526004016105d090611c6c565b60405180910390fd5b6105e360006113c9565b565b6000600560009054906101000a900473ffffffffffffffffffffffffffffffffffffffff16905090565b60606004805461061e9061208c565b80601f016020809104026020016040519081016040528092919081815260200182805461064a9061208c565b80156106975780601f1061066c57610100808354040283529160200191610697565b820191906000526020600020905b81548152906001019060200180831161067a57829003601f168201915b5050505050905090565b6000806106ac610a91565b90506000600160008373ffffffffffffffffffffffffffffffffffffffff1673ffffffffffffffffffffffffffffffffffffffff16815260200190815260200160002060008673ffffffffffffffffffffffffffffffffffffffff1673ffffffffffffffffffffffffffffffffffffffff16815260200190815260200160002054905083811015610772576040517f08c379a000000000000000000000000000000000000000000000000000000000815260040161076990611d0c565b60405180910390fd5b61077f8286868403610a99565b60019250505092915050565b600080610796610a91565b90506107a3818585610cf0565b600191505092915050565b6107b6610a91565b73ffffffffffffffffffffffffffffffffffffffff166107d46105e5565b73ffffffffffffffffffffffffffffffffffffffff161461082a576040517f08c379a000000000000000000000000000000000000000000000000000000000815260040161082190611c6c565b60405180910390fd5b600660008273ffffffffffffffffffffffffffffffffffffffff1673ffffffffffffffffffffffffffffffffffffffff16815260200190815260200160002060009054906101000a900460ff16156108b7576040517f08c379a00000000000000000000000000000000000000000000000000000000081526004016108ae90611bac565b60405180910390fd5b6001600660008373ffffffffffffffffffffffffffffffffffffffff1673ffffffffffffffffffffffffffffffffffffffff16815260200190815260200160002060006101000a81548160ff02191690831515021790555050565b6000600160008473ffffffffffffffffffffffffffffffffffffffff1673ffffffffffffffffffffffffffffffffffffffff16815260200190815260200160002060008373ffffffffffffffffffffffffffffffffffffffff1673ffffffffffffffffffffffffffffffffffffffff16815260200190815260200160002054905092915050565b6109a1610a91565b73ffffffffffffffffffffffffffffffffffffffff166109bf6105e5565b73ffffffffffffffffffffffffffffffffffffffff1614610a15576040517f08c379a0000000000000000000000000000000000000000000000000000000008152600401610a0c90611c6c565b60405180910390fd5b600073ffffffffffffffffffffffffffffffffffffffff168173ffffffffffffffffffffffffffffffffffffffff161415610a85576040517f08c379a0000000000000000000000000000000000000000000000000000000008152600401610a7c90611bcc565b60405180910390fd5b610a8e816113c9565b50565b600033905090565b600073ffffffffffffffffffffffffffffffffffffffff168373ffffffffffffffffffffffffffffffffffffffff161415610b09576040517f08c379a0000000000000000000000000000000000000000000000000000000008152600401610b0090611cec565b60405180910390fd5b600073ffffffffffffffffffffffffffffffffffffffff168273ffffffffffffffffffffffffffffffffffffffff161415610b79576040517f08c379a0000000000000000000000000000000000000000000000000000000008152600401610b7090611bec565b60405180910390fd5b80600160008573ffffffffffffffffffffffffffffffffffffffff1673ffffffffffffffffffffffffffffffffffffffff16815260200190815260200160002060008473ffffffffffffffffffffffffffffffffffffffff1673ffffffffffffffffffffffffffffffffffffffff168152602001908152602001600020819055508173ffffffffffffffffffffffffffffffffffffffff168373ffffffffffffffffffffffffffffffffffffffff167f8c5be1e5ebec7d5bd14f71427d1e84f3dd0314c0f7b2291e5b200ac8c7c3b92583604051610c579190611d2c565b60405180910390a3505050565b6000610c708484610912565b90507fffffffffffffffffffffffffffffffffffffffffffffffffffffffffffffffff8114610cea5781811015610cdc576040517f08c379a0000000000000000000000000000000000000000000000000000000008152600401610cd390611c0c565b60405180910390fd5b610ce98484848403610a99565b5b50505050565b600073ffffffffffffffffffffffffffffffffffffffff168373ffffffffffffffffffffffffffffffffffffffff161415610d60576040517f08c379a0000000000000000000000000000000000000000000000000000000008152600401610d5790611ccc565b60405180910390fd5b600073ffffffffffffffffffffffffffffffffffffffff168273ffffffffffffffffffffffffffffffffffffffff161415610dd0576040517f08c379a0000000000000000000000000000000000000000000000000000000008152600401610dc790611b6c565b60405180910390fd5b6000439050600960009054906101000a900460ff1615610e0d57436007819055506000600960006101000a81548160ff0219169083151502179055505b610e2460085460075461148f90919063ffffffff16565b8111158015610e665750610e366105e5565b73ffffffffffffffffffffffffffffffffffffffff168473ffffffffffffffffffffffffffffffffffffffff1614155b8015610ea55750610e756105e5565b73ffffffffffffffffffffffffffffffffffffffff168373ffffffffffffffffffffffffffffffffffffffff1614155b15610f15576000610ed36064610ec56001866114a590919063ffffffff16565b6114bb90919063ffffffff16565b9050610ee08585836114d1565b610efd8530610ef8848761175290919063ffffffff16565b6114d1565b610f0f30610f0a30610515565b6111f2565b506111ec565b600a5442108015610f595750610f296105e5565b73ffffffffffffffffffffffffffffffffffffffff168473ffffffffffffffffffffffffffffffffffffffff1614155b8015610f985750610f686105e5565b73ffffffffffffffffffffffffffffffffffffffff168373ffffffffffffffffffffffffffffffffffffffff1614155b8015610fed5750600660008473ffffffffffffffffffffffffffffffffffffffff1673ffffffffffffffffffffffffffffffffffffffff16815260200190815260200160002060009054906101000a900460ff165b1561104757600c54821115611037576040517f08c379a000000000000000000000000000000000000000000000000000000000815260040161102e90611c4c565b60405180910390fd5b6110428484846114d1565b6111eb565b600a544210801561108b575061105b6105e5565b73ffffffffffffffffffffffffffffffffffffffff168473ffffffffffffffffffffffffffffffffffffffff1614155b80156110ca575061109a6105e5565b73ffffffffffffffffffffffffffffffffffffffff168373ffffffffffffffffffffffffffffffffffffffff1614155b801561111f5750600660008573ffffffffffffffffffffffffffffffffffffffff1673ffffffffffffffffffffffffffffffffffffffff16815260200190815260200160002060009054906101000a900460ff165b156111de57600061112f84610515565b9050600b54611147848361148f90919063ffffffff16565b1115611188576040517f08c379a000000000000000000000000000000000000000000000000000000000815260040161117f90611c8c565b60405180910390fd5b600c548311156111cd576040517f08c379a00000000000000000000000000000000000000000000000000000000081526004016111c490611c4c565b60405180910390fd5b6111d88585856114d1565b506111ea565b6111e98484846114d1565b5b5b5b50505050565b600073ffffffffffffffffffffffffffffffffffffffff168273ffffffffffffffffffffffffffffffffffffffff161415611262576040517f08c379a000000000000000000000000000000000000000000000000000000000815260040161125990611cac565b60405180910390fd5b61126e82600083611768565b60008060008473ffffffffffffffffffffffffffffffffffffffff1673ffffffffffffffffffffffffffffffffffffffff168152602001908152602001600020549050818110156112f4576040517f08c379a00000000000000000000000000000000000000000000000000000000081526004016112eb90611b8c565b60405180910390fd5b8181036000808573ffffffffffffffffffffffffffffffffffffffff1673ffffffffffffffffffffffffffffffffffffffff16815260200190815260200160002081905550816002600082825461134b9190611fd0565b92505081905550600073ffffffffffffffffffffffffffffffffffffffff168373ffffffffffffffffffffffffffffffffffffffff167fddf252ad1be2c89b69c2b068fc378daa952ba7f163c4a11628f55a4df523b3ef846040516113b09190611d2c565b60405180910390a36113c48360008461176d565b505050565b6000600560009054906101000a900473ffffffffffffffffffffffffffffffffffffffff16905081600560006101000a81548173ffffffffffffffffffffffffffffffffffffffff021916908373ffffffffffffffffffffffffffffffffffffffff1602179055508173ffffffffffffffffffffffffffffffffffffffff168173ffffffffffffffffffffffffffffffffffffffff167f8be0079c531659141344cd1fd0a4f28419497f9722a3daafe3b4186f6b6457e060405160405180910390a35050565b6000818361149d9190611d7e565b905092915050565b600081836114b39190611f76565b905092915050565b600081836114c99190611dd4565b905092915050565b600073ffffffffffffffffffffffffffffffffffffffff168373ffffffffffffffffffffffffffffffffffffffff161415611541576040517f08c379a000000000000000000000000000000000000000000000000000000000815260040161153890611ccc565b60405180910390fd5b600073ffffffffffffffffffffffffffffffffffffffff168273ffffffffffffffffffffffffffffffffffffffff1614156115b1576040517f08c379a00000000000000000000000000000000000000000000000000000000081526004016115a890611b6c565b60405180910390fd5b6115bc838383611768565b60008060008573ffffffffffffffffffffffffffffffffffffffff1673ffffffffffffffffffffffffffffffffffffffff16815260200190815260200160002054905081811015611642576040517f08c379a000000000000000000000000000000000000000000000000000000000815260040161163990611c2c565b60405180910390fd5b8181036000808673ffffffffffffffffffffffffffffffffffffffff1673ffffffffffffffffffffffffffffffffffffffff16815260200190815260200160002081905550816000808573ffffffffffffffffffffffffffffffffffffffff1673ffffffffffffffffffffffffffffffffffffffff16815260200190815260200160002060008282546116d59190611d7e565b925050819055508273ffffffffffffffffffffffffffffffffffffffff168473ffffffffffffffffffffffffffffffffffffffff167fddf252ad1be2c89b69c2b068fc378daa952ba7f163c4a11628f55a4df523b3ef846040516117399190611d2c565b60405180910390a361174c84848461176d565b50505050565b600081836117609190611fd0565b905092915050565b505050565b505050565b60008135905061178181612549565b92915050565b60008135905061179681612560565b92915050565b6000602082840312156117ae57600080fd5b60006117bc84828501611772565b91505092915050565b600080604083850312156117d857600080fd5b60006117e685828601611772565b92505060206117f785828601611772565b9150509250929050565b60008060006060848603121561181657600080fd5b600061182486828701611772565b935050602061183586828701611772565b925050604061184686828701611787565b9150509250925092565b6000806040838503121561186357600080fd5b600061187185828601611772565b925050602061188285828601611787565b9150509250929050565b60006020828403121561189e57600080fd5b60006118ac84828501611787565b91505092915050565b6118be81612004565b82525050565b6118cd81612016565b82525050565b60006118de82611d62565b6118e88185611d6d565b93506118f8818560208601612059565b6119018161214b565b840191505092915050565b6000611919602383611d6d565b915061192482612169565b604082019050919050565b600061193c602283611d6d565b9150611947826121b8565b604082019050919050565b600061195f601d83611d6d565b915061196a82612207565b602082019050919050565b6000611982602683611d6d565b915061198d82612230565b604082019050919050565b60006119a5602283611d6d565b91506119b08261227f565b604082019050919050565b60006119c8601d83611d6d565b91506119d3826122ce565b602082019050919050565b60006119eb602683611d6d565b91506119f6826122f7565b604082019050919050565b6000611a0e602b83611d6d565b9150611a1982612346565b604082019050919050565b6000611a31602083611d6d565b9150611a3c82612395565b602082019050919050565b6000611a54602683611d6d565b9150611a5f826123be565b604082019050919050565b6000611a77602183611d6d565b9150611a828261240d565b604082019050919050565b6000611a9a602583611d6d565b9150611aa58261245c565b604082019050919050565b6000611abd602483611d6d565b9150611ac8826124ab565b604082019050919050565b6000611ae0602583611d6d565b9150611aeb826124fa565b604082019050919050565b611aff81612042565b82525050565b611b0e8161204c565b82525050565b6000602082019050611b2960008301846118b5565b92915050565b6000602082019050611b4460008301846118c4565b92915050565b60006020820190508181036000830152611b6481846118d3565b905092915050565b60006020820190508181036000830152611b858161190c565b9050919050565b60006020820190508181036000830152611ba58161192f565b9050919050565b60006020820190508181036000830152611bc581611952565b9050919050565b60006020820190508181036000830152611be581611975565b9050919050565b60006020820190508181036000830152611c0581611998565b9050919050565b60006020820190508181036000830152611c25816119bb565b9050919050565b60006020820190508181036000830152611c45816119de565b9050919050565b60006020820190508181036000830152611c6581611a01565b9050919050565b60006020820190508181036000830152611c8581611a24565b9050919050565b60006020820190508181036000830152611ca581611a47565b9050919050565b60006020820190508181036000830152611cc581611a6a565b9050919050565b60006020820190508181036000830152611ce581611a8d565b9050919050565b60006020820190508181036000830152611d0581611ab0565b9050919050565b60006020820190508181036000830152611d2581611ad3565b9050919050565b6000602082019050611d416000830184611af6565b92915050565b6000602082019050611d5c6000830184611b05565b92915050565b600081519050919050565b600082825260208201905092915050565b6000611d8982612042565b9150611d9483612042565b9250827fffffffffffffffffffffffffffffffffffffffffffffffffffffffffffffffff03821115611dc957611dc86120be565b5b828201905092915050565b6000611ddf82612042565b9150611dea83612042565b925082611dfa57611df96120ed565b5b828204905092915050565b6000808291508390505b6001851115611e4f57808604811115611e2b57611e2a6120be565b5b6001851615611e3a5780820291505b8081029050611e488561215c565b9450611e0f565b94509492505050565b6000611e6382612042565b9150611e6e8361204c565b9250611e9b7fffffffffffffffffffffffffffffffffffffffffffffffffffffffffffffffff8484611ea3565b905092915050565b600082611eb35760019050611f6f565b81611ec15760009050611f6f565b8160018114611ed75760028114611ee157611f10565b6001915050611f6f565b60ff841115611ef357611ef26120be565b5b8360020a915084821115611f0a57611f096120be565b5b50611f6f565b5060208310610133831016604e8410600b8410161715611f455782820a905083811115611f4057611f3f6120be565b5b611f6f565b611f528484846001611e05565b92509050818404811115611f6957611f686120be565b5b81810290505b9392505050565b6000611f8182612042565b9150611f8c83612042565b9250817fffffffffffffffffffffffffffffffffffffffffffffffffffffffffffffffff0483118215151615611fc557611fc46120be565b5b828202905092915050565b6000611fdb82612042565b9150611fe683612042565b925082821015611ff957611ff86120be565b5b828203905092915050565b600061200f82612022565b9050919050565b60008115159050919050565b600073ffffffffffffffffffffffffffffffffffffffff82169050919050565b6000819050919050565b600060ff82169050919050565b60005b8381101561207757808201518184015260208101905061205c565b83811115612086576000848401525b50505050565b600060028204905060018216806120a457607f821691505b602082108114156120b8576120b761211c565b5b50919050565b7f4e487b7100000000000000000000000000000000000000000000000000000000600052601160045260246000fd5b7f4e487b7100000000000000000000000000000000000000000000000000000000600052601260045260246000fd5b7f4e487b7100000000000000000000000000000000000000000000000000000000600052602260045260246000fd5b6000601f19601f8301169050919050565b60008160011c9050919050565b7f45524332303a207472616e7366657220746f20746865207a65726f206164647260008201527f6573730000000000000000000000000000000000000000000000000000000000602082015250565b7f45524332303a206275726e20616d6f756e7420657863656564732062616c616e60008201527f6365000000000000000000000000000000000000000000000000000000000000602082015250565b7f54686973207061697220697320616c7265616479206578636c75646564000000600082015250565b7f4f776e61626c653a206e6577206f776e657220697320746865207a65726f206160008201527f6464726573730000000000000000000000000000000000000000000000000000602082015250565b7f45524332303a20617070726f766520746f20746865207a65726f20616464726560008201527f7373000000000000000000000000000000000000000000000000000000000000602082015250565b7f45524332303a20696e73756666696369656e7420616c6c6f77616e6365000000600082015250565b7f45524332303a207472616e7366657220616d6f756e742065786365656473206260008201527f616c616e63650000000000000000000000000000000000000000000000000000602082015250565b7f5472616e7366657220616d6f756e742065786365656473206d6178696d756d2060008201527f7472616e73616374696f6e000000000000000000000000000000000000000000602082015250565b7f4f776e61626c653a2063616c6c6572206973206e6f7420746865206f776e6572600082015250565b7f5472616e7366657220616d6f756e742065786365656473206d6178696d756d2060008201527f77616c6c65740000000000000000000000000000000000000000000000000000602082015250565b7f45524332303a206275726e2066726f6d20746865207a65726f2061646472657360008201527f7300000000000000000000000000000000000000000000000000000000000000602082015250565b7f45524332303a207472616e736665722066726f6d20746865207a65726f20616460008201527f6472657373000000000000000000000000000000000000000000000000000000602082015250565b7f45524332303a20617070726f76652066726f6d20746865207a65726f2061646460008201527f7265737300000000000000000000000000000000000000000000000000000000602082015250565b7f45524332303a2064656372656173656420616c6c6f77616e63652062656c6f7760008201527f207a65726f000000000000000000000000000000000000000000000000000000602082015250565b61255281612004565b811461255d57600080fd5b50565b61256981612042565b811461257457600080fd5b5056fea2646970667358221220d50a3afccb73145c964231820646564f42d3ce93fb2cf6c683c3996d07995d9064736f6c63430008040033",
  "devdoc": {
    "kind": "dev",
    "methods": {
      "allowance(address,address)": {
        "details": "See {IERC20-allowance}."
      },
      "approve(address,uint256)": {
        "details": "See {IERC20-approve}. NOTE: If `amount` is the maximum `uint256`, the allowance is not updated on `transferFrom`. This is semantically equivalent to an infinite approval. Requirements: - `spender` cannot be the zero address."
      },
      "balanceOf(address)": {
        "details": "See {IERC20-balanceOf}."
      },
      "decimals()": {
        "details": "Returns the number of decimals used to get its user representation. For example, if `decimals` equals `2`, a balance of `505` tokens should be displayed to a user as `5.05` (`505 / 10 ** 2`). Tokens usually opt for a value of 18, imitating the relationship between Ether and Wei. This is the value {ERC20} uses, unless this function is overridden; NOTE: This information is only used for _display_ purposes: it in no way affects any of the arithmetic of the contract, including {IERC20-balanceOf} and {IERC20-transfer}."
      },
      "decreaseAllowance(address,uint256)": {
        "details": "Atomically decreases the allowance granted to `spender` by the caller. This is an alternative to {approve} that can be used as a mitigation for problems described in {IERC20-approve}. Emits an {Approval} event indicating the updated allowance. Requirements: - `spender` cannot be the zero address. - `spender` must have allowance for the caller of at least `subtractedValue`."
      },
      "increaseAllowance(address,uint256)": {
        "details": "Atomically increases the allowance granted to `spender` by the caller. This is an alternative to {approve} that can be used as a mitigation for problems described in {IERC20-approve}. Emits an {Approval} event indicating the updated allowance. Requirements: - `spender` cannot be the zero address."
      },
      "name()": {
        "details": "Returns the name of the token."
      },
      "owner()": {
        "details": "Returns the address of the current owner."
      },
      "renounceOwnership()": {
        "details": "Leaves the contract without owner. It will not be possible to call `onlyOwner` functions anymore. Can only be called by the current owner. NOTE: Renouncing ownership will leave the contract without an owner, thereby removing any functionality that is only available to the owner."
      },
      "symbol()": {
        "details": "Returns the symbol of the token, usually a shorter version of the name."
      },
      "totalSupply()": {
        "details": "See {IERC20-totalSupply}."
      },
      "transfer(address,uint256)": {
        "details": "See {IERC20-transfer}. Requirements: - `to` cannot be the zero address. - the caller must have a balance of at least `amount`."
      },
      "transferFrom(address,address,uint256)": {
        "details": "See {IERC20-transferFrom}. Emits an {Approval} event indicating the updated allowance. This is not required by the EIP. See the note at the beginning of {ERC20}. NOTE: Does not update the allowance if the current allowance is the maximum `uint256`. Requirements: - `from` and `to` cannot be the zero address. - `from` must have a balance of at least `amount`. - the caller must have allowance for ``from``'s tokens of at least `amount`."
      },
      "transferOwnership(address)": {
        "details": "Transfers ownership of the contract to a new account (`newOwner`). Can only be called by the current owner."
      }
    },
    "version": 1
  },
  "userdoc": {
    "kind": "user",
    "methods": {},
    "version": 1
  },
  "storageLayout": {
    "storage": [
      {
        "astId": 120,
        "contract": "contracts/SaninInu.sol:SaninInu",
        "label": "_balances",
        "offset": 0,
        "slot": "0",
        "type": "t_mapping(t_address,t_uint256)"
      },
      {
        "astId": 126,
        "contract": "contracts/SaninInu.sol:SaninInu",
        "label": "_allowances",
        "offset": 0,
        "slot": "1",
        "type": "t_mapping(t_address,t_mapping(t_address,t_uint256))"
      },
      {
        "astId": 128,
        "contract": "contracts/SaninInu.sol:SaninInu",
        "label": "_totalSupply",
        "offset": 0,
        "slot": "2",
        "type": "t_uint256"
      },
      {
        "astId": 130,
        "contract": "contracts/SaninInu.sol:SaninInu",
        "label": "_name",
        "offset": 0,
        "slot": "3",
        "type": "t_string_storage"
      },
      {
        "astId": 132,
        "contract": "contracts/SaninInu.sol:SaninInu",
        "label": "_symbol",
        "offset": 0,
        "slot": "4",
        "type": "t_string_storage"
      },
      {
        "astId": 7,
        "contract": "contracts/SaninInu.sol:SaninInu",
        "label": "_owner",
        "offset": 0,
        "slot": "5",
        "type": "t_address"
      },
      {
        "astId": 1145,
        "contract": "contracts/SaninInu.sol:SaninInu",
        "label": "pair",
        "offset": 0,
        "slot": "6",
        "type": "t_mapping(t_address,t_bool)"
      },
      {
        "astId": 1147,
        "contract": "contracts/SaninInu.sol:SaninInu",
        "label": "start",
        "offset": 0,
        "slot": "7",
        "type": "t_uint256"
      },
      {
        "astId": 1149,
        "contract": "contracts/SaninInu.sol:SaninInu",
        "label": "end",
        "offset": 0,
        "slot": "8",
        "type": "t_uint256"
      },
      {
        "astId": 1151,
        "contract": "contracts/SaninInu.sol:SaninInu",
        "label": "starting",
        "offset": 0,
        "slot": "9",
        "type": "t_bool"
      },
      {
        "astId": 1153,
        "contract": "contracts/SaninInu.sol:SaninInu",
        "label": "maxWalletTimer",
        "offset": 0,
        "slot": "10",
        "type": "t_uint256"
      },
      {
        "astId": 1155,
        "contract": "contracts/SaninInu.sol:SaninInu",
        "label": "maxWallet",
        "offset": 0,
        "slot": "11",
        "type": "t_uint256"
      },
      {
        "astId": 1157,
        "contract": "contracts/SaninInu.sol:SaninInu",
        "label": "maxTransaction",
        "offset": 0,
        "slot": "12",
        "type": "t_uint256"
      }
    ],
    "types": {
      "t_address": {
        "encoding": "inplace",
        "label": "address",
        "numberOfBytes": "20"
      },
      "t_bool": {
        "encoding": "inplace",
        "label": "bool",
        "numberOfBytes": "1"
      },
      "t_mapping(t_address,t_bool)": {
        "encoding": "mapping",
        "key": "t_address",
        "label": "mapping(address => bool)",
        "numberOfBytes": "32",
        "value": "t_bool"
      },
      "t_mapping(t_address,t_mapping(t_address,t_uint256))": {
        "encoding": "mapping",
        "key": "t_address",
        "label": "mapping(address => mapping(address => uint256))",
        "numberOfBytes": "32",
        "value": "t_mapping(t_address,t_uint256)"
      },
      "t_mapping(t_address,t_uint256)": {
        "encoding": "mapping",
        "key": "t_address",
        "label": "mapping(address => uint256)",
        "numberOfBytes": "32",
        "value": "t_uint256"
      },
      "t_string_storage": {
        "encoding": "bytes",
        "label": "string",
        "numberOfBytes": "32"
      },
      "t_uint256": {
        "encoding": "inplace",
        "label": "uint256",
        "numberOfBytes": "32"
      }
    }
  }
}